:020000040000fa
:080000001401040000000000df
:020000040000fa
:10020000ac2c040000000000d0300400000000000e
:10021000ac31040000000000343404000000000091
:1002200094010400000000002f3521008079220095
:100230000001880000000000050007000c00070016
:1002400072230200000000000040da000000fe00ff
:100250004440a900800f20000000e00003003200ad
:1002600000002000a00188004440a8000000060013
:100270006066240001002000160037006200400084
:10028000e0804800910188009001ba0062004000bf
:10029000e0804800910188009002ba0062004000ae
:1002a000e08048000002eb006028e10005003a0011
:1002b0008301e90007003300038009000059eb00c7
:1002c000040037006128e100010032000082eb00e9
:1002d00005000700910188001001ba000200e0004b
:1002e000e6ff3a00000005009101880080027800d6
:1002f00062004000e08048003559ba008301e900ff
:10030000080032002559ba008301e90005003200d7
:100310000400e000f4ff320015d9ba008301e900bf
:10032000f1ff3a0000000600881f78000204780000
:10033000ce000700080040004f04780000000600cf
:100340000000fa00881f7800000478003fb9970089
:10035000ea8157008000780040192000d100070092
:10036000800078000000e000020035000040eb0053
:1003700000f47800010078004f0478000080fa0053
:1003800000000600889fbe0080047800318780004e
:10039000010078000100e0000a003a00810e21000f
:1003a000e810e2001c00320011007800908f540029
:1003b000140036008080e8001100e000faff3a00e7
:1003c000150037001100e00006003200110178002e
:1003d000928f54000b0036008280e8001100e0008c
:1003e000faff3a0010017800810e2100408780005a
:1003f000820f50000800320011007800908f5400e6
:1004000002003e0001007800150037008080e800ff
:10041000910f1100f8ff3a0058878000890f5400af
:10042000010031000904780008007800520107003b
:10043000000178000000e00005003a000000eb0039
:10044000890f5400060032000804d100f3ff370082
:10045000081978000200780044000700cbff37003d
:100460004f04be0000000600881f780063044000af
:100470000800a1000001eb00800f540022003600ac
:10048000e30f540001003e004800200008007800ff
:10049000bcff0700800078000001eb000000e000d6
:1004a0001900320010017800920178006480510038
:1004b000880f50000300310012009000800878007f
:1004c0000700370008004100800878001202900001
:1004d000140098001100780008885100080978007d
:1004e000910078000100e00004003200110090004b
:1004f0008180e8000000e00001003a008000eb008d
:10050000318788000281e800020078004f047800fb
:1005100000000600881f78000004780082878000b1
:1005200060878000800f51000a0031008200d000f7
:100530000200e800808788007087800061007800f2
:10054000000001008287800060878000800f5100da
:10055000f6ff390080fe200070878800200220000e
:100560006087880008007800f20807000000e000bb
:10057000360032000081e90012027800e30f5200d9
:10058000320036000408a30030003a0041878000a2
:100590000100e00002003200810f51000300310031
:1005a00001087800428788001d003700810178002b
:1005b000110090000000e00008003200820f50009f
:1005c0000600310080017800100090000000e0007b
:1005d00002003200820f5000faff390093007800c9
:1005e00001804100800f510018003900820f500037
:1005f00003003a00848940000301780008003700b6
:10060000930090000100e00003003200040041006c
:10061000808f50000d003900110198009201980060
:10062000920090000100e000080032009201780082
:1006300003004100810f500004003a00e630ef0053
:100640001089410010009000100198000000060081
:10065000800078001004e000020032005104e00045
:10066000feff3a0000805000000006008001780084
:100670000200e00003003200b15978000201e900f5
:10068000fdff3a0000000600800178000200e00053
:1006900003003200815978000201e900fdff3a00b1
:1006a000000006006200fa00889fbe008a9fbe001c
:1006b0000004be0002057800830078006a805700bd
:1006c000b4000700f88f9f0089979f000000eb009f
:1006d000909f9f001a80fb008005fb000000ea004d
:1006e000cf04de000904780050022000808f5500fe
:1006f00001003a000904e9000800e0000c003400a1
:100700000f909700080178008a007800ff89970011
:100710000300010080979f008080eb000000e00054
:10072000900032001f98970008004000909f9f00a3
:100730000905450050022000808f5500040032005a
:100740000b00e000e3ff3a009f9897008500370018
:100750000000eb00f0979f00e0979f00d0979f006c
:10076000c0979f00b0979f00a0979f00b09f9f00e9
:1007700009003700200b2100008050000000d0004d
:10078000810b210001004000bf989700908070000d
:10079000b19f9f000a05e8009a00fb00200b210092
:1007a0007e000700800078000000e000f1ff3a00c2
:1007b000a0c2b3009a4f10000e003a003fb8970055
:1007c0000080e900b0bf9f0010007800a09f9f004c
:1007d0000000e00005003d000000ea00a09f9f002f
:1007e0003f9897000020a000b09f9f000a05e800f6
:1007f00011003700a19f9f000b003700af989700b2
:10080000f0ff2700808f5000060032006a09b9000f
:100810001a00fb000200400001fd2f000100400013
:10082000a09f9f000a05e8001a00fb006300070074
:100830000000e000f1ff3a00e0c2b3009a4f100060
:10084000030032000080eb00809f9f001c003700f7
:10085000a0c2b300da4f100007003a003fb897007b
:100860000080e900b0bf9f0010007800809f9f00cb
:100870000a05e800120037000000eb00809f9f008f
:100880000b0037008f989700f0ff2700808f5000f3
:10089000060032006a09b9001a00fb00020040009d
:1008a00001fd2f0001004000809f9f000a05e80025
:1008b0001a00fb00410007000000e000f1ff3a00d1
:1008c0009a00fb0040132100340007008040eb0039
:1008d0000000e00001003200ba407800817f9f00f4
:1008e00080c6b30080cf500004003a009acf1000b9
:1008f00002003a0066405000070037008f789700ea
:10090000c0c6b30080cf500005003a009acf100057
:1009100003003a0065404000807f9f000a05e80020
:10092000a0fb2f00008447003a417800880178003e
:10093000ea80570060f92f000f00400025000700f3
:100940000000e00006003a008800780060f92f00ff
:100950000f004000cf0107000000e0005dff3d00f8
:100960008080eb00010078004f05be004f04be0000
:100970000080fa00000006000000e00003003400e0
:10098000f4070700e10f400001003a000000eb000f
:1009900000000600010878000000060090cf10005b
:1009a000050032001004e00001003a0000000500dc
:1009b000d0cf1000fbff3a00000006000003b1009a
:1009c000030035009000b10001003c00100005005c
:1009d00000000500889fbe008a1f78000004780090
:1009e0000102780002457800830478000200fb00d1
:1009f000cf80de005002b1000180b100320520003e
:100a0000820f5000e08f580095013e000060010009
:100a10008d013700920137009101370090013700b6
:100a20008f0137008e0137008d0137008c013700b0
:100a30008b0137008a0137008901370088013700b0
:100a400087013700860137008501370084013700b0
:100a500083013700820137008101370080013700b0
:100a60007f0137007e0137007d0137007c013700b0
:100a70007b0137007a0137007901370078013700b0
:100a8000ed0037007601370075013700740137003b
:100a9000e9003700e8003700e70037007001370051
:100aa0006f0137006e0137006d0137006c013700b0
:100ab0006b0137006a0137006901370068013700b0
:100ac00067013700660137004b01370064013700ca
:100ad0006301370062013700610137008000370091
:100ae0005f0137005e0137005d0137005c013700b0
:100af0005b0137005a0137005901370058013700b0
:100b0000cd00370056013700150037001c003700b4
:100b1000c9003700c8003700c70037005001370050
:100b2000170037004e0137004d0137004c013700e8
:100b30004b013700ec003700690037001f01370018
:100b400047013700460137002b01370044013700c9
:100b50006300370042013700410137006000370071
:100b60006e01440012007800808141009480e90009
:100b7000010a78000009e800914978004101370036
:100b8000a8609000c0c6b30080cf50000a003a00b1
:100b90009400780064805000000a78001000be00c5
:100ba0004f89de00cf91de000002be000203780014
:100bb000820378001500370010c7b30080cf5000c3
:100bc00002003a0014017800040037001401780094
:100bd000a0c6b30080cf500005003a006800510065
:100be000000a78003002be002003be000700370074
:100bf0000280e900000a7800100078000002780006
:100c0000cfa2de000503780086037800049cbe00b6
:100c10000694be00a860900080c6b30080cf50004c
:100c20000f00320020c6b30080cf500006003a000b
:100c3000184078000000fb00cf80de000101780042
:100c4000820178000a00370040c7b30080cf50000f
:100c5000030032006640400080cf500006003a009a
:100c600018007800cf80de00010178008201780052
:100c7000009cbe000294be003800be002801be00e9
:100c8000e00f5000e08f5800e00f5900e08f59004e
:100c900004003d006e01440092007800d0c2b30011
:100ca0000c003700081090000018a3000400320068
:100cb0006e01440092007800b0c2b3000500370016
:100cc0000008a300570032006e0144009200780033
:100cd00000c2b30080f478000109e8005100370039
:100ce000a8609000c0c6b30080cf500006003a0054
:100cf0009400780064805000000a78001002be0062
:100d00006033b8001500370010c7b30080cf500023
:100d100002003a0014017800040037001401780042
:100d2000a0c6b30080cf500005003a006800510013
:100d3000000a78003002be002003be000700370022
:100d40000280e900000a78001000780000027800b4
:100d5000050020000600200007002000049cbe00c3
:100d60000694be00a860900080c6b30080cf5000fb
:100d70000f00320020c6b30080cf500006003a00ba
:100d8000184078000080fb000100200002002000d5
:100d9000030020000a00370040c7b30080cf500096
:100da000030032006640400080cf500006003a0049
:100db000180078000100200002002000030020003d
:100dc000009cbe000294be00081090000038a300f2
:100dd000140032003800be002801be00e00f5000b1
:100de000e08f5800e00f5900e08f59000d003200ed
:100df00080c7b300804f55000300320080c5b300a8
:100e0000804f550007003a006e00440090007800c3
:100e100002c3b30082f478008100e8008af478000d
:100e20000108e80078009000008044006004980009
:100e30008a4078006d003700a860900014017800a7
:100e4000c0c4b30080cf500005003a0068005100d4
:100e5000000a78005001be004000be0004003700c8
:100e600064005100000a78001000be00cb090700a2
:100e7000009cbe000294be00380090000000e0001c
:100e800004003d006e01440092007800d0c2b3001f
:100e90000c003700081090000018a3000400320076
:100ea0006e01440092007800b0c2b3000500370024
:100eb0000008a300050032006e0144009200780093
:100ec00000c2b30080f478000109e80078009000c7
:100ed00000804400600498008a4078000800780090
:100ee0003a01070067003700286090008000fb008f
:100ef000c0062000808f5000230032000a003c0012
:100f000064005000808f50002600320004003c0036
:100f100066005000808f50000b0032002100370027
:100f2000a00620000500370040072000808f5000f9
:100f30001c0032001b003c0063005000808f5000fa
:100f400007003200170037001480e900000a78001b
:100f500010007800485c900008487800490037008d
:100f60001480e900000a78001002780068089000f8
:100f7000cf80de000101780082017800009abe0077
:100f80000292be003f0037001480e900000a78009a
:100f90001001780068089000cf80de000089be0054
:100fa000380037001480e900000a7800100078004b
:100fb000680c900008087800320037001480e900bf
:100fc000000a780010007800cf80de000101780070
:100fd00082017800009cbe000294be007800900060
:100fe000008044006004980081c7b30008007800c6
:100ff0004d030700230037001480e900000a780041
:101000001000780060049800580990000200e00089
:1010100002003d008efd0700090037008000eb0054
:10102000f3030700800078000000e00003003200b6
:1010300068009000008050000100370058089000c0
:10104000100c98000f0037006e01440092007800e9
:1010500050c2b30080f178000109e80009003700b0
:10106000ee00440011007800808144000a427800bc
:101070008008e8000a04e00001003a0054c2b3000e
:10108000844978000000eb004f0578004f04be0053
:10109000000006000400fa00889fbe008a9fbe0080
:1010a0008c1f78000004780001067800700890001a
:1010b000f8009000010050008808900001005000e6
:1010c0009808900001005000a8089000010050000e
:1010d000b808900001005000c80890008105500039
:1010e0000002220090bf9f0000032300a0bf9f00ca
:1010f000081090000028a30018003a000b00e00040
:10110000160034000b0578008a047800e20f5500c1
:1011100001003600290020000900e0000c00340026
:1011200058009000c801900009017800ee80570037
:1011300003000100500498008080eb000000e000f4
:101140009c0032006808900009004000600c980084
:10115000090555004240a900ebff3c0078019000d2
:101160000200e0000c00340058009000c80190001c
:101170008c00780003000100500498008080eb0090
:101180000000e0008b00320068089000f80090003a
:1011900001004000600c9800080890000000e0008a
:1011a00016003400000578008a047800e20f55002c
:1011b00001003600290020000900e0000c00340086
:1011c00058009000c801900009017800ec80570099
:1011d00003000100500498008080eb000000e00054
:1011e000740032006808900009004000600c98000c
:1011f000090555004240a900ebff3c00180990008a
:101200000200e0000c003400e8009000580090005c
:10121000c801900003000100500498008080eb009a
:101220000000e00063003200680890009808900019
:1012300001004000600c9800280890000000e000c9
:1012400016003400000578008a047800e20f55008b
:1012500001003600290020000900e0000c003400e5
:1012600058009000c801900009017800ec805700f8
:1012700003000100500498008080eb000000e000b3
:101280004c0032006808900009004000600c980093
:10129000090555004240a900ebff3c0038099000c9
:1012a0000200e0000e003400e800900018089000f2
:1012b0008080400058009000c801900003000100a9
:1012c000500498008080eb000000e00039003200fc
:1012d00068089000b808900001004000600c980079
:1012e000480890000000e000160034000005780077
:1012f0008a047800e20f5500010036002900200022
:101300000900e0000c00340058009000c801900073
:1013100009017800ec805700030001005004980098
:101320008080eb000000e00022003200680890009e
:1013300009004000600c9800090555004240a900d2
:10134000ebff3c00081090000028a30018003200ba
:101350000b00e000160034000b0578008a047800ca
:10136000e20f550001003600290020000900e000ce
:101370000c00340058009000c8019000090178006a
:10138000ee80570003000100500498008080eb00bd
:101390000000e000070032006808900009004000eb
:1013a000600c9800090555004240a900ebff3c0085
:1013b0008000eb00010078004f0678004f05be006a
:1013c0004f04be000080fa0000000600ef04b000e9
:1013d000889fbe008a9fbe008c9fbe008e1f780033
:1013e000c0af9f00a1df9f0060fa2f000f004000f8
:1013f000e0af9f00cfaa97005503be004502be0094
:1014000084af9f0095af9f00a6af9f00b7af9f002e
:1014100010c6b30080cf50001600320010c4b300d5
:1014200080cf5000130032004fab97005608900059
:101430000000e00003003d0060002000500b980019
:101440000c0037000000e0000a003a0070c6b3004c
:10145000afdb970080cf53000300320070c4b300ad
:1014600080cf530003003a0010002000cfa897005f
:10147000d0089800cfa89700e2fc2f000280470018
:10148000e402070080017800e20f500014003a00e7
:10149000cfa99700e3009000300020009009980049
:1014a00010c6b3002fda9700804f52000a003200b6
:1014b00064404000804f5200070032000040e800c6
:1014c000804f520004003200221021000040e8004a
:1014d000804f520017003a006210210015003700bb
:1014e0000000e00018003400cfaa9700e50090004b
:1014f00030002000900a980010c6b3002fdb970040
:10150000804f53000a00320064404000804f530077
:10151000070032000040e800804f53000400320012
:10152000a21021000040e800804f530001003a0063
:10153000e2102100b258780002007800b05878001c
:1015400090487800f201370014c6b300afdb970073
:1015500084cf53000300320010c4b30080cf530087
:1015600010003a004fa89700ec00400011017800ed
:1015700000c3b300005978008208e80080c7b300b8
:10158000afd8970084cf50000100320080c5b3006f
:10159000004978004fa99700720090000080e80091
:1015a000700198000300e00003003a008006eb00a1
:1015b000fda79f00d001370011c6b300afd9970037
:1015c00081cf51000300320010c4b30080cf51001e
:1015d000ad003a002e1121002fda9700814f520002
:1015e000010032003e122100cfaa9700550890005a
:1015f0008006e8000000e00001003d001d02200020
:101600000d06e8004fab97003604be002605be006d
:101610006022b8006033b8000fa897009fa8970019
:101620002fa99700bfa99700fb0707000000e00063
:1016300001003d000bf0a20088af9f0099af9f0012
:10164000aaaf9f00bbaf9f007fa09700640050002f
:10165000f0a79f00efab9700805beb00e7af9f0028
:101660003f003700c20120000300200001fd2f00d1
:1016700001804700950207000faa97009faa9700d4
:101680002fab9700bfab9700f4af9f0085b79f00cb
:1016900096b79f00a7b79f000400be000601be00da
:1016a000e20707000004be000005be006706560002
:1016b0004240a9000c003400080807000002be00e8
:1016c0000203be007fa897008fb097001fb197005c
:1016d000afb197000408070080af9f0091af9f0053
:1016e000a2af9f00b3af9f00efaa9700e78242002e
:1016f000e5af9f0070002000e00f5400e08f5c0019
:101700000d003400600020006fab97006f63650030
:10171000e6af9f00cc5bdd004455de000a85730018
:10172000c4ddde00e00f5500e08f5d0002003400f4
:101730000000e900f4ff3b000000e9000500330071
:10174000efa897008060eb00e1af9f000000e90088
:10175000fbff3b006fa9970067014100e2af9f00cc
:101760000c00e000090034006022b8006033b800cb
:101770000fa897009fa897002fa99700bfa99700cf
:10178000db0707000000e000b6ff3c00efa9970070
:1017900064fa2f000f024200048051000006e900a5
:1017a00075fa2f0085824700e5af9f008d0f560028
:1017b00001003d008c0678000d00e0002b00350094
:1017c0008c8f560005003d006fab970066c07e0011
:1017d000f2c0b300e74f500001003c000041eb00b5
:1017e0008d00e900efab970067c07800824f500092
:1017f00006003a008d06e9008100e900efa9970094
:1018000063c07800824f5000faff3200ef4f510062
:1018100004003a006faa970064c078000040e80016
:1018200000f278000100e00007003d00efaa9700f9
:101830008502e900e5af9f008d06e8007fa09700d4
:1018400064004000f0a79f008d00e900070033000e
:101850006fab970066c078000000fb006e40780018
:1018600000f378008100e900f9ff3b00cfab97005f
:10187000570890000000e0001f013d000d00e90046
:10188000d00b98001c0137000fac97009fac97005d
:101890002fad9700bfad97006022b8006033b8004d
:1018a0000800be000a01be005b0707000000e00060
:1018b00005003d000bf0a20088af9f0099af9f008c
:1018c000aaaf9f00bbaf9f007fa09700725927006f
:1018d0000280b900026a280013002000890707006f
:1018e000e4005000f1a79f001d003b006380100042
:1018f000c1ff2f00010460000800ea00f0a79f006c
:101900008004eb000800e000470034000808a30052
:101910000e0032006848b80002fa200002004000c1
:101920003002be002003be000fa897009fa89700ba
:101930002fa99700bfa997008107070080af9f00dc
:1019400091af9f00a2af9f00b3af9f000884d1006a
:101950008904e8000800e000ecff3c00320037009a
:101960000100e000300034006022b80006002000d2
:1019700007ff2300b4b79f00c5b79f00d6b79f00ed
:10198000e7b79f00c0ff2f0000806000f0a79f0016
:10199000000478008004eb00160034000808a3005f
:1019a000100032006848b80005fa20000500400029
:1019b0003002be002003be003fb09700cfb09700ba
:1019c0005fb19700efb197005d0707000002be000e
:1019d0000203be00b4b79f00c5b79f00d6b79f00f3
:1019e000e7b79f000884d1008904e8000800e00000
:1019f000eaff3c003fb29700cfb297005fb3970079
:101a0000efb397000fa897009fa897002fa9970002
:101a1000bfa99700bf07070080af9f0091af9f004d
:101a2000a2af9f00b3af9f004fab9700d6089000c6
:101a300060c6b300afdb970080cf530004003200d4
:101a40006687400060c4b30080cf530003003a00b3
:101a50007fa09700008040006a074000f30f570006
:101a6000010034003e01200000c3b300efa897003e
:101a700080587800e1af9f003a0037000800be00b0
:101a80000a01be00e90607000006be00f0b79f008d
:101a900081bf9f00680757004240a9000e00340034
:101aa0000e0707000002be000203be000800be00d1
:101ab0000a01be000c0707006022b80046782d001e
:101ac000771924001e07070080af9f0091af9f0089
:101ad000a2af9f00b3af9f00efa99700e88141003c
:101ae000e3af9f0088002000e00f5600e08f5e000b
:101af0001100340078002000a20020000300200024
:101b00007fb097008fb89700e60107006faa970093
:101b100005c3b30005624100e4af9f00f0b79f002a
:101b200081bf9f00e00f5000e08f5800020034009a
:101b30000804e900f0ff3b000804e9000600330058
:101b400000c3b300efab970080637800e7af9f005e
:101b50000804e900faff3b006fa897006800400006
:101b6000e0af9f000e00e0000b0034000fac9700c8
:101b70009fac97002fad9700bfad97006022b800d3
:101b80006033b8000800be000a01be00d806070096
:101b90000000e000b9ff3c00efa8970062fa2f00b8
:101ba0000f014100028050000007e90073fa2f0086
:101bb00083814700e3af9f007fa09700670040004c
:101bc000f0a79f0001c3b30093cf10000a003a00b2
:101bd0000e07e9007fa097000000e900f0a79f0032
:101be0006faa97000402e800e4af9f001442780057
:101bf000814f5200f6ff3200cfaa9700d50890001f
:101c000060c6b3002fdb9700804f53000300320003
:101c100060c4b300804f530004003a007fa09700d7
:101c2000008040008006e8000a0037008001eb00d9
:101c300050c6b300afdb970080cf530003003200e3
:101c400050c4b30080cf530001003a0013002000bd
:101c5000838640008d0f570001003d008e067800fe
:101c60000d00e000240035008e8f560006003d0078
:101c70006fa89700e0c07e0092c3b30040c3b300da
:101c800080cf500001003c0002c3b3008d00e9008a
:101c9000efa9970063c07800824f500006003a0019
:101ca0008d06e9008100e9006faa970064c0780002
:101cb000824f5000faff320090c3b300804f5100b2
:101cc00004003a00efaa970065c078000040e800e1
:101cd00080f278000100e00007003d006fab970044
:101ce0000603e900e6af9f008d06e8007fa097009d
:101cf0000000e800f0a79f007fa297008d01780008
:101d00006fa99700afd897004fa897007c010700f4
:101d10004f0778004f06be004f05be004f04be00bf
:101d2000ef04b100000006006f02b000889fbe0003
:101d30008a9fbe008c9fbe008e1f780080067800b0
:101d4000100a2100b0b79f0080c5b30080cf5000bb
:101d50000200320002092100b2b79f008300200078
:101d6000c3b79f00f0c6b30080cf50000a00320016
:101d70006940400080cf500005003200a4002000e0
:101d8000c4b79f0080c5b30080cf500002003a0066
:101d900000012000c0b79f008e0120003d04be005e
:101da0002d05be0040c6b30080cf500003003200b6
:101db0006540400080cf50000a003a00e00f540018
:101dc000e08f5c00e00f5d00e08f5d0005003d00ee
:101dd0000800be000a01be00280707000205be0079
:101de0000004be00e00f5400e08f5c00e00f5d00d7
:101df000e08f5d0003003a005d0890000000e00005
:101e00000c0032007e012000cfb097000102780064
:101e1000cfa2de0005037800860378000800be002c
:101e20000a01be00ab0707003fb29700644078008c
:101e3000d0e79f004fb09700cf80de00010178000f
:101e400082017800d0b79f00e1b79f00f2b79f00f2
:101e500083bf9f000203be000002be000800be0058
:101e60000a01be0094070700809ebe008296be0055
:101e7000e00f5000e08f5800e00f5900e08f59004c
:101e8000220034000e00e000200034003d00be00bf
:101e90002d01be005fb29700efb297007fb39700ad
:101ea0008fbb97008f0707000205be000004be002d
:101eb0000e07e900e1fc2f008f804000010647007b
:101ec0005fb29700efb297007fb397008fbb970088
:101ed0000800be000a01be00360807001d00100001
:101ee0003fb19700624e7800889ebe008a96be0081
:101ef000e00f5400e08f5c00e00f5d00e08f5d00bc
:101f0000020034000e00e000e0ff3c00cfb197007b
:101f1000e88f510010003a000d1090000038a30027
:101f20000d003200f70f570006003e00e4fc2f00c2
:101f30000e024200e4c07f0000c3b30080cf500017
:101f4000050032000e07e90000c3b300e1fc2f00da
:101f50008e80400080f07f0078011700920e98007c
:101f60006d009000e3fc2f008f8141008e804100c6
:101f7000bef907001d0e90005d089000800f56000e
:101f800006003d000c005000800e98000d109000df
:101f90000040a100801698000f0037000000e0000c
:101fa0000d003d000d10900074006000f00f500017
:101fb00009003a007d089000fd00900001005000eb
:101fc0008d089000010050000c0750004240a9000d
:101fd000010034008e0e98004f0778004f06be00b7
:101fe0004f05be004f04be006f02b10000000600a6
:101ff0000200e0000500320090cf10000400320023
:102000000000e8000201e900fbff3a000000eb00dd
:1020100000000600889fbe0080047800010478005c
:10202000310090000000d0004501de00f07f20006c
:10203000800f510010003a00800ceb00310090003e
:102040006f00600008003a00210090000000e000ee
:1020500005003a00110090000000e00002003a0084
:102060001100e000020032002000200015003700bf
:1020700010002000130037000200e00005003c00c3
:1020800001007800cf010700000178000000e000a7
:102090000a003c0038009000f100280001006000b8
:1020a00001fe2300010070003004980020c02f00c2
:1020b000800c41000080eb0002003700800ceb0038
:1020c0000000eb004f04be0000000600881f7800ef
:1020d0008a9fbe00000478000205be003001900017
:1020e0000200d000c500de00f07f2000808f50008d
:1020f0000c003a006f00610008003a0028009000d0
:102100000000e00005003a00180090000000e00028
:1021100002003a001800e0001c00320020002000fd
:102120005d0037000100e00006003a00080078007a
:10213000a4010700800078000000eb000100e0002f
:1021400055003c006108b9000a0540008b85480035
:10215000e07f2000800f5500e08f5d000d0034000f
:10216000380090006022b8000600200007ff2f0012
:102170000000e000030035006022b80006002000e7
:1021800007ff2700049cbe000694be00100020003c
:1021900041003700b8009000e00f5500e08f5d006f
:1021a00005003400f000280000806000c450dd000d
:1021b00001007000360037000000280080826000b7
:1021c0006f8060000040a000300498006105550059
:1021d000e0855d00c0fc2f00f1ff2f00800f55004f
:1021e000818f5d0006003d00350498000000eb0083
:1021f0002004980010049800000ceb002600370023
:102200000a027800f00f45000b003c001800900017
:10221000000c78002800900010049800380090000e
:10222000200498000000eb00300498007002420087
:10223000f00f4200f5ff34000402ea001200320001
:10224000180178000411de00f0011200180090005f
:102250008300dd00010c71000400de002801900005
:102260008310dd0001007000100498000411de00ee
:10227000380090008301dd00030171002204980002
:102280000400de0030049800380090000500700063
:10229000300498000080eb004f05be004f0478002a
:1022a000000006000400fa00889fbe008a9fbe005e
:1022b0008c9fbe0080bf9f0091bf9f000206be00a2
:1022c000100507000001be000004be000c00be00a7
:1022d0005d0707000fb997009fb9970000055100ef
:1022e000818559000800be000a01be004f06be00ed
:1022f0004f05be004f04be000080fa00000006003b
:102300000a00fa00889fbe008a9fbe008c9fbe0014
:102310000004780001457800820578008304780085
:10232000040678000300e00002003c0019002000d1
:102330000b15210060c6b300804f55000e0032001f
:1023400060c4b300804f55000b00320070c6b3006c
:10235000804f55000300320070c4b300804f550019
:1023600083003a00e40f46008100350058089000d1
:10237000800f56007e003d000c06e80060c6b300ea
:10238000804f55001000320060c4b300804f5500ec
:102390000d003200081090000038a30004003a003d
:1023a00058089000808f540001003d00590c98009f
:1023b000580890000c005000500c980002003b00a0
:1023c0000000eb00500c98000c00e00027003c00df
:1023d000f2014400130178006800900001c3b300cb
:1023e000017079000201e800820978005808900025
:1023f0000000e00003003c00081090000038a3003b
:1024000004003200e8009000e0c2b3008070790060
:102410008209e8000c00ea00d8089000808f500084
:1024200001003d000106ea000c00ea00200c9800c3
:102430000c804000500c9800890f500001003d00b6
:102440008004780068009000980890000100400027
:10245000390c9800090178008b00780083f8070098
:1024600058089000090050001a003700e80090005a
:10247000180890008c8f540018003d000080400028
:10248000090178008b00780078f8070018089000a0
:1024900009014000120c980009005600200c980019
:1024a000580890000000e00003003c000810900075
:1024b0000038a30006003200e8009000e0c2b3003c
:1024c00080707900380890000000e800300c980017
:1024d00058089000400c9800a3003700008040008e
:1024e0000c0178008b00780060f807001808900055
:1024f0000c004000100c98008c8454005808900088
:102500000000e00003003c00081090000038a30029
:1025100006003200f2014400930078006801900048
:10252000e0c2b30000f178008109e800580890008b
:10253000890f500001003d00800478006800900081
:1025400098089000010040008c8045000901780047
:1025500046f807001808900009004000100c980089
:102560005808900009005000200c98007e003700a9
:1025700070c6b300804f55000300320070c4b30032
:10258000804f550014003a0058089000808f540086
:1025900004003d00081090000038a30001003a003c
:1025a000590c9800580890000000e900500c980061
:1025b00002003b000000eb00500c980051c6b30035
:1025c00070c6b300804f55000100320051c4b30003
:1025d000014578000900370010c6b300804f550050
:1025e00002003a000ac7b3000400370010c4b30069
:1025f000804f550001003a000ac5b300f2014400c3
:1026000013017800680090003b7079000201e80037
:1026100082097800580890000000e00003003c00a8
:10262000081090000038a30004003200e800900079
:10263000e0c2b300807079008209e8005808900079
:102640000000e000100034008904e900890f500008
:1026500001003d0080047800680090009808900018
:1026600001004000090178008b007800fff70700a7
:102670001808900009004000100c980058089000bd
:1026800009005000200c9800e80090001808900005
:10269000808540008a5d78008b06e8000c00e00031
:1026a00004003500b0c2b300804d78008d0578007d
:1026b00004003700d0c2b300804d78008d0578004b
:1026c0000c06ea008004eb000c00e0000900340076
:1026d000a10020000c0078008d00070076815400d6
:1026e00001f17f00000678008904e8000000e000a6
:1026f000f7ff3c00e18f540009003c0050c6b300d6
:10270000804f55000300320050c4b300804f550085
:1027100003003a0000c3b300805e78008d057800a6
:102720000900e00002003a0000c3b300805d7800b9
:102730000900e000070034008904e900f680540035
:1027400061c07f0002c3b300825d40000900e00069
:10275000f9ff3c00680090009808900001004000dc
:1027600000805500300c9800081090007400600044
:10277000f00f50000e003a0078009000980890008a
:1027800001004000a808900001004000b808900037
:1027900001004000c80890008100400078089000c7
:1027a000808f500002003d0001005000000c980096
:1027b0004f06be004f05be004f04be000080fa0069
:1027c00000000600000278003000900001002800a0
:1027d00001036000150020006f00600030029800c7
:1027e00008003a00240090000000e00005003a00d4
:1027f000140090000000e00002003a001400e00025
:102800003e003200340090000000e0000b003a006f
:1028100024009000300298001400900020029800dc
:102820001400780010029800000aeb00f0825200b9
:10283000340090000000e000f5ff3200340090000a
:10284000ef0f500014003e008001d000a400900063
:102850004f08de0080817100330298008100d000b3
:10286000140190004f10de0080807000210298005b
:102870000201d000940078004f08de0000017100d2
:1028800012029800010ad0008502e90003007800d6
:10289000ef8f5100ecff3600b4019000ff8f510024
:1028a000130036001401d10014009000cf00dd00a9
:1028b000010a71000000d100a40090004f09dd0062
:1028c00002007000100298008100d1004f18dd0056
:1028d00080807000210298000300d100300298002f
:1028e0008502e80080017800ff0f5000edff3e00f8
:1028f000340090006f0060003002980034009000b7
:102900000600700030029800050078000000060004
:102910000101780000027800110009000200d800cf
:102920000002fd000491b900820250000400be00c4
:10293000000006000c02e20004003d000f42ab0064
:10294000020032000f02ab00feff32000040da004e
:10295000feff3700889fbe00800478000011e2006f
:1029600005003a000000eb00100007008080eb003b
:102970000000e0000a003500088880008800780028
:102980000900e000060032000900440007000700cb
:102990008080eb000000e000010035008800780036
:1029a000010078004f04be0000000600800078009f
:1029b0000001eb000000e00003003a0020152100b8
:1029c000008888000600370020352100808f5000e5
:1029d00002003e0001888800010037000081eb0002
:1029e0000200780000000600889fbe008a9fbe009b
:1029f000010578000100e0000400350008003c00fb
:102a00000000e000200032000500370060001000e8
:102a1000e080180002003b0001f02c001a00370093
:102a20000004be006011b8006b0920000982cf00cd
:102a3000020039000882cf000441b0006942520010
:102a40000e00320008003b008281710061016400c9
:102a50008904d1000884d3008b05e8000442e80013
:102a6000f9ff3a00050037000804440089844c004f
:102a70008b05e9000442e900fbff3a003a01070038
:102a80000af0a70001f0a0004f05be004f04be00f1
:102a900000000600f4ff2f005901370003f0a200e8
:102aa000889fbe008a9fbe008c1f78006f010700c0
:102ab000760133006450e1004f0032006420e100f1
:102ac0005200320003826c0007003b000905d00071
:102ad0000306d000820f54000c065d00020039008e
:102ae00002003200890178000306780085825500d3
:102af00004003d000003fd008103fd008502ea00a3
:102b00008b854200840f720002003b0060001000c1
:102b1000e08018006011b8000005eb007a28e100a1
:102b20000a00390006007800c75ddd00f707b20033
:102b3000878075002d003700828171000a017800be
:102b4000610560008180d1000080d3008502e9002a
:102b5000f9ff3b00060440008784480002003b0068
:102b600060041400e0841c000988a3000700320000
:102b70008a81710082817100610164008904d10041
:102b80000884d3008b05e800170037000978a300fc
:102b900013003a000b00e000130034008b05e9003d
:102ba0000804440089844c000a4474000978a30096
:102bb0000d003a000b00e000070034008b05e9002f
:102bc0000804440089844c0001003a000b002000f6
:102bd0000978a300f7ff32000001eb000200370084
:102be000828171000a017800df0007000cf0a70065
:102bf00001f0a0002e0137006420e10002003a003d
:102c0000838f6c002e0133000801be000200be005d
:102c1000270137000081eb002c013700889fbe00a0
:102c20008a9fbe008c1f7800100107001701330037
:102c300003866c006450e100240032006420e1004f
:102c4000270032006150e100220032006120e100e3
:102c5000210032008b854200eb07b1000134b8003f
:102c6000003ab8000804420089844a00013ab800da
:102c70000030b8008880400009014a000400330099
:102c80000000400081804800020149008b05e900f6
:102c9000c909dd008301700001003200130020002b
:102ca000c814de004814dd004709de001200b2003f
:102cb000c808de0008847000ab00070001f0a10026
:102cc0000cf0a70001f0a000f90037006120e1003e
:102cd000fb0032000801be000200be00f7ff370013
:102ce0006150e100fcff3a00f5003700889fbe000c
:102cf0008a9fbe008c1f7800dc000700e3003300d1
:102d000003866c006450e1002e0032006420e10074
:102d1000330032006150e1002f0032006120e100f9
:102d20003100320085855500eb07b0000900200016
:102d300008042000050037000804440089844c0082
:102d40000a0031000603430087834b000001530053
:102d500081815b00f8ff33000203be000800a00081
:102d60000804440089844c00f6ff3900c639dd00b0
:102d70008301730001003200130020008904d10098
:102d80000884d3000998a300050032000800a700ba
:102d90000300a0008904d1000884d3008b05e8005b
:102da0008904d1000884d3000001eb000281d20025
:102db0006d00070001f0a1000cf0a70001f0a000d9
:102dc000bb0037006420e100bd0032000801be00f6
:102dd0000200be00f7ff37006120e100b8003200ba
:102de0006000b800f3ff37000000200001f8270062
:102df000f0ff37000001eb00b4003700889fbe00f1
:102e00008a9fbe008c1f78009800070010022000e7
:102e100002003b00d08788009c0037008a006200d7
:102e20006408e10002003a00d0878800a40037005f
:102e30006108e100fcff32000800be0003047800d6
:102e4000aaff070001f0a1000901070008f0a60091
:102e5000040037000001be0091042400b0fd2000f2
:102e60000eff070009f0a70001f0a2009000370054
:102e70000001be00630107000470a70003f0a10079
:102e80006509b100160032000d0035006828e10028
:102e900006003500f0ff2f00f1ff27000300e000df
:102ea00013003b0001002800000005000000400066
:102eb000818048008502e900fcff3a0008003700e5
:102ec000f88f420002003c008000eb00000005008b
:102ed0008100d1000080d3008502e800fcff3a00a9
:102ee0000300e00002003b0060001000e0801800da
:102ef000000006000001be00420107000470a700a8
:102f000003f0a10003f8a30013003a006509b10023
:102f100010003200090035006928e1000200350088
:102f200001002800000005000000400081804800ea
:102f30008502e900fcff3a0000000600f88f42001d
:102f4000050035008100d1000080d3008502e80033
:102f5000fcff3a00000006008000eb0000000500c6
:102f600014002000260037008100200061805500f9
:102f70000b003d000b00200061fe2f000100e1006e
:102f80001d00340082817100610164008904d10058
:102f90000884d3000000e800faff3a007100200026
:102fa000610064000300700002006000090032004c
:102fb00061044400e0844c000988a500050032004b
:102fc0008b05e8006808e10002003a008904d1009e
:102fd0000884d300f20f20000258e10005003d00f4
:102fe000c75ddd00f907b200898075000800780030
:102ff000000006000bf827008b0078000000050099
:10300000889fbe008a9fbe00841f780017000700bb
:103010004f00780011003300f0ff2f00838f6c0009
:1030200006003b00040565000a00a7000800370001
:1030300009f0a6001000200008003700820f54009d
:10304000838f5c00030039001000200001003e0067
:103050000000200009f0a7000000ea004f05be00b4
:103060004f04be000000e000000006000004be00a7
:10307000e40007000003be000405be000200be001d
:10308000e0000700844f7500000006000200be004b
:103090006450e100050036006420e10002003600c3
:1030a0000968a30001003a000800be000160a0000a
:1030b0004f0678004f05be004f04be00000006001a
:1030c000f0ff2f00f1ff2700f9ff3700889fbe00b7
:1030d0008a9fbe008c9fbe00820578000004be005f
:1030e000c80007000800be006420e10007003900a6
:1030f00002003a00f1ff2700f0ff2f000160a0005e
:1031000012022000d2878800550037006120e100bc
:1031100003003a000b00a70001f82300500037001d
:1031200001f0a10002002100936424008cff07003d
:103130000800be0004003500b2fd2000930c2400fe
:10314000c50007000004be000005eb000b00a60050
:103150004f0dde0001f0a1000004be0032982f00e8
:1031600023ea2300adfe07000001eb0003f023007b
:103170000b00a70003f8230049fe07003cff0700ef
:103180000000a7000a00a20017fe07000b00e000e5
:10319000030032000200200003f023003ffe07007e
:1031a00001f0a2000006be000200200093042400eb
:1031b0009afe07000801be0039fe0700809fbe008e
:1031c0000c00be0022a22a00d3a7230093fe070012
:1031d0004f01be0032fe07000004be0001f0a10056
:1031e00002002000039823005dff07000800be00d6
:1031f000190035000001be0088fe07000006be0071
:10320000b2c52900e362230084fe070022222b00be
:10321000f3942b0022fe07000c01be007ffe070086
:10322000e273280083c023001dfe07000c01be00ce
:103230007afe070042aa2a00a3e22b0018fe07002c
:103240000c01be0075fe07000801be0073fe0700fa
:103250000801be0012fe07000a00a70001f0a2004c
:103260004f06be004f05be004f04be000000060022
:10327000889fbe008a9fbe008c9fbe000004be00d7
:10328000600007000800be00890678006420e100a5
:1032900008003900040032000160a0001202200082
:1032a000d28788005300370091fc2300b0fd200036
:1032b0004e0037000006eb0009f0a10003f82300e0
:1032c000020020000800be0025ff070006003400b1
:1032d00001f82300000020000801be0083fe070063
:1032e0000004be002c0020000800be0093e823006c
:1032f000320a23001aff0700120034000801be0042
:10330000d1fd2300703d2b00e5fd07000005be0048
:10331000b3f32300f27a26000800be003ffe070048
:1033200003f8230002002000dcfd07000801be00b6
:10333000dbfd07000a01be006cfe07000004be00b2
:103340000c06e8000800be0001f0a1000200200009
:103350000398230002ff07000800be001600350096
:103360000801be002dfe07000005be0032cd2c0076
:1033700043fb2300cafd0700809fbe00126928009e
:1033800003d52b000a00be0024fe0700620f2100b7
:1033900013ef2b00c2fd07000a01be001ffe07004d
:1033a0004f01be0051fe07000801be001bfe0700d2
:1033b0000801be00bafd07000c00e0000b0032005f
:1033c0000c10a70001f0a200b2fd200093fc230026
:1033d0006260e1000400320022a9200063f02300b3
:1033e0000c10a70063f82300adfd07000df0a70047
:1033f00001f0a2004f06be004f05be004f04be0004
:1034000000000600c70ade00f107b200f50fb200a7
:1034100008003200e1cf4200020032000170a0003b
:1034200024000500810f700001003200040805002f
:1034300044000500810f700002003a0014000500ee
:103440008502e9000000400081c04800fcff3b000d
:103450000170a000240005000400200000003700d7
:10346000889fbe008a9fbe008c1f78004f26dd001b
:10347000fefe070005ff33006120e100430032003b
:103480006250e10041003e003e0039006420e1004e
:103490003c003200058255000f003b000402e800aa
:1034a00038003a00800f5300818f5b0035003400f4
:1034b0000800be0003f0a10001f0a60003f0a00088
:1034c0000cf0a70076fd0700f9fe37000603430065
:1034d00087834b000c4646000005530081855b0046
:1034e000020033000a03be000c00a0000402e90041
:1034f000f6ff3b00850578000602430087824b00fb
:1035000004003a006000b80009f0a70001f0a00034
:10351000e7fe37000002520081825a000704e000f3
:10352000040033000603430087834b008b05e9004a
:10353000faff3700090578000604be000203be004a
:103540006011b80088fe0700e00f5200e08f5a00bb
:103550000700350002003c000c08a3000400320004
:103560000601be0003f0a0000cf0a7004cfd070010
:103570000a85680001f0a1000af0a70001f0a00090
:10358000cbfe37000800be00c9fe37001002200045
:103590000cf0a600d0878800c9fe370081037800b0
:1035a00098ff07000001be006000b8000478a30087
:1035b00013003a006220e10015003e000d003900c2
:1035c0008301d1000281d3008180d3008301d10027
:1035d0000281d3008180d3008301d1000281d30016
:1035e0008180d3000538b000c42add00f300b200aa
:1035f0008381720007f0a70003f0a000000006001e
:10360000f3ff2700f2ff2f006110b900fbff370026
:1036100003ff2700f7ff37008f1fd100900207003c
:103620008f87e9000000e000000006001400fa00a7
:10363000889fbe008a9fbe008c9fbe000004be0013
:103640000205be00680047000a90be000890be0058
:10365000ac0207000070a7000bf0a100304320006f
:103660009e02900080825200b0fe2f000028e100f0
:1036700011003d00b0fc2f000028e10015003400cf
:103680001e0990008e0890007e0090000501b00099
:103690000201d1008180d3000080d3008502e800c0
:1036a000fbff3a000b00e000d1023b00600010007d
:1036b000e0801800ce023700f0ff2f00f1ff270056
:1036c0000b00e000ca023b000100280000002000bf
:1036d000c70237006000b800c50237004f89de001e
:1036e00082017800c702370007f0a200fc02370011
:1036f000809feb005a0207008f87e9000000e0007e
:1037000000000600839f68000100e00002003d0009
:1037100060001000e08018000300e00002003d009f
:1037200060011100e08119006a0307004f00e0000a
:1037300002003b0060001000e0801800000006005e
:103740002800fa00889fbe008a9fbe008c9fbe00a2
:1037500003866b00920207000028a30064003a0071
:103760000128a30067003a000008a30062003a00a5
:103770000108a30065003a001e009000be089000fa
:1037800081064000ed3fb100f4805700ee0190004b
:10379000111ab8008e099000311bb8009e099000e4
:1037a000311cb800511db800f485570046000700d1
:1037b000fe0190003a0007008b85e8003e000700fc
:1037c0008e09900040000700ee01900034000700d1
:1037d0008b85e800380007008e0990004000070044
:1037e0009e0990001b18b800890440000a85480013
:1037f000fe019000340007008b85e80038000700c8
:10380000ee019000300007008e0990001b18b800f0
:10381000890440000a8548000a98a30008003a007d
:103820000402420085824a0006034b0087834b0056
:1038300008044c0089844c000a054d008d06e900ff
:1038400084827200850273004c3add0085027200aa
:103850000100320015002000443ade001400b200de
:103860004538de00cb45dd000b007000c540de00b2
:10387000cb4ddd008b8070004549de00cb55dd006f
:103880000b017100c551de000d0378002103070014
:1038900003f0a1000cf0a70003f0a00054023700d1
:1038a0001b18b8008502400006834800e0834b00e7
:1038b00060044c00070037001b18b80006034000e6
:1038c00087834800faff37001b18b80087034000c1
:1038d00008844800e0844c0060054d0000000600ac
:1038e0001b18b8000804400089844800faff37001c
:1038f0000108a3003b023a005800be005801be0078
:10390000e3ff37000008a30036023a0009047800fc
:10391000f9ff37002800fa00889fbe008a9fbe008a
:103920008c9fbe0003866b001d0207006400e1004f
:10393000440032006408e1004a0032006100e10006
:10394000460032006108e10049003200ec06470001
:103950006000b8003d02be003d03be00f486570083
:103960006011b8003d04be003d05be007d0320008f
:103970000b0037000000a0008d06e90013003200a4
:103980000402420085824a0006034b0087834b00f5
:103990000000400081804800020149008381490005
:1039a0000802520089825a000a035b008b835b0085
:1039b000f0ff3b000802420089824a000a034b00e4
:1039c0008b834b008d06e900edff3a008482720084
:1039d00086827200f707b20087827200010032000f
:1039e000150020001e0490003e0b900006035400ba
:1039f000e63fb0000368a300070032000000a70004
:103a00000500a0008301d1000281d3008180d30092
:103a10000080d3000603e8008301d1000281d300b7
:103a20008180d3000080d3000002eb000482d2002a
:103a3000b802070003f0a1000cf0a70003f0a000fb
:103a4000eb013700640247006408e100e501320041
:103a50003400be003401be00f6ff37006108e1000b
:103a6000e00132006011b8006000b800f1ff3700db
:103a700003ff270002002000fbff3700600010005a
:103a8000e080180060011900e081190000000600c4
:103a9000881f7800000478005001be004000be007e
:103aa0000000420081804a0002014b0083814b00ec
:103ab000009cbe000294be00dc0007000300310041
:103ac000480090000000e800400498004f0478008f
:103ad00000000600889fbe00000478008004eb0010
:103ae0005001be004000be00d000070001003100c0
:103af000190020000400500085805800060159007c
:103b000087815900009cbe000294be0048009000ce
:103b100009005000400498004f04be000000060059
:103b20001200fa00889fbe008a9fbe008c1f78009a
:103b30000205be000004be00f4b79f0085bf9f00d1
:103b400096bf9f00a7bf9f000000eb00e0b79f005b
:103b5000d0b79f00c0b79f00b0b79f00a0b79f002d
:103b60000006eb005fb197006fb097008000d000b7
:103b70000000e00015003d00e1b79f000100780063
:103b80000200e00001003d000000a000ac000700c2
:103b900001003d000000a000af00070001003d0053
:103ba0000000a000b200070001003d000000a000de
:103bb0008100070001003d000000a000b2000700e6
:103bc0007c805700b2ff070014003700e1b79f0068
:103bd000010078000200e00001003d000000a000ac
:103be0009700070001003d000000a0009a000700b8
:103bf00001003d000000a0009d00070001003d0005
:103c00000000a0006c00070001003d000000a000c3
:103c10009d0007007c805700aeff07006fb0970043
:103c20000000e00007003500100020000100200027
:103c30006011b80008047000898470000a057100e2
:103c40008b8571000c06e800f0032000800f560001
:103c5000c4ff34006fb097000000e00006003d0094
:103c60007fb297008fba97001fbb9700afbb97003a
:103c70007c80570086ff07000802be000a03be00d2
:103c80006fa897000000e00004003a002fb29700f0
:103c9000bfb297004fb39700dfb397000400be0098
:103ca0000601be004f0678004f05be004f04be005f
:103cb0000080fa0000000600881f7800180020002d
:103cc000881f780096ff07008f87e9004f0478006f
:103cd00000000600801feb0091ff07008f87e900be
:103ce000000006000800fa00889fbe008a9fbe0000
:103cf0008c1f78006e00070005003d0043000700a0
:103d0000300007000c003d00330007000b003700b7
:103d1000e00f5200e08f5a00e00f5b00e08f5b0085
:103d200006003d000400be000601be0053ff070070
:103d30000205be000004be001c0020002c0007008d
:103d4000ddff07000c00e000010032004bff070020
:103d50004f0678004f05be004f04be000080fa00f9
:103d6000000006000800fa00889fbe008a9fbe007f
:103d70008c1f78004e00070002003d001c00200050
:103d8000220007000f00070001003d00120007009d
:103d900017000700cfff07000c00e0000100320011
:103da00036ff07004f0678004f05be004f04be00e7
:103db0000080fa000000060090b79f000100d000cc
:103dc00080b79f00e00f5400e08f5c00e00f5d00c3
:103dd000e08f5d00000006000800be000a01be0082
:103de00026ff07000205be000004be00000006001a
:103df0000802be000a03be005fb09700efb0970054
:103e00007fb197008fb99700000006001bff0700e5
:103e10000100070000000600b0b79f00c1b79f0077
:103e2000d2b79f00e3b79f00000006000400e10046
:103e30000588e1000690e1000798e1000000060017
:103e4000c0b79f000200d000b0b79f00afb097008e
:103e50000100e00000000600b0b79f000100d000a4
:103e6000a0b79f009fb097000100e000000006008f
:103e7000a0b79f000100d00090b79f008fb09700bf
:103e80000100e0000000060080b79f000804d00099
:103e90008984d2000a85d2008b85d2005fb2970058
:103ea000efb297007fb397008fbb9700000006002a
:103eb000d9ff07000605be000404be000006eb00a3
:103ec000e00f5000e08f5800e00f5900e08f5900dc
:103ed000000006000800fa00889fbe008a9fbe000e
:103ee0008c1f7800f0b79f0081bf9f0092bf9f009a
:103ef000a3bf9f006044b8006055b8000006eb0007
:103f00000408a300080032007fb097008fb8970024
:103f10001fb99700afb99700080440008984480092
:103f20000a0549008b8549008703d1000683d30029
:103f30008582d3000482d3001000200001002000fd
:103f40006011b80008006000898060000a0161000b
:103f50008b8161000000e000070032006000b800c3
:103f60000200200003002800040270008582700017
:103f700006037100878371008b05d1000a85d30089
:103f80008984d3000884d3000c06e800f0032000e5
:103f9000800f5600daff34000400be000601be00a8
:103fa0004f0678004f05be004f04be000080fa00a7
:103fb000000006000800fa00889fbe008a9fbe002d
:103fc000170007000605be000404be00e00f520003
:103fd000e08f5a00e00f5b00e08f5b0008003d00bf
:103fe0000400be000601be00a4fe07000205be00dc
:103ff0000004be000f000700a0fe07000800070035
:104000000802be000a03be000a000700b1ff070055
:104010004f05be004f04be000080fa0000000600fd
:10402000e0b79f00f1b79f0082bf9f0093bf9f0042
:10403000000006006fb09700ffb097000fb997001f
:104040009fb9970000000600020ab900001bb900e2
:104050000200b80081004200810043000000060019
:10406000889fbe008a9fbe008c9fbe000404be00d5
:104070000605be00809fbe00829fbe005101070062
:10408000040678000800be000a01be004d010700ca
:10409000840678004f03be004f02be008d4f7600ad
:1040a0007fb0970013003300f0ff2f008b8f6b0061
:1040b00006003b000d0666000c00a7000a00370052
:1040c00007f0a600100020000a003700880f5200f9
:1040d000898f5a008a0f5b008b8f5b0003003900c9
:1040e0001000200001003e000000200007f0a700a3
:1040f0000000ea004f06be004f05be004f04be00a0
:1041000000000600800078005002be005003be0090
:104110004439de00f700b200f37f200003016100a4
:10412000090032000218e10016003a008501720011
:1041300083017300838173000008200015003a009a
:1041400040002000130037008501720083017300d6
:104150008381730005003a0004a8be0006a8be00d3
:10416000100020000b0037000201e90004024200a9
:1041700085824a0006034b0087834b000748a30053
:10418000f9ff32000740a00004a8be0006a8be0048
:104190002000200080009800920098000000060097
:1041a000680447000294be000094be00fc0447006f
:1041b0008694be008494be0009007800d1ff0700f9
:1041c00008007800cfff070099007800814f700049
:1041d0000b003b000800be000c0107004f00b100bf
:1041e00003003700f3ff2700f2ff2f006110b90032
:1041f0004f06be004f05be004f04be000080fa000f
:1042000000000600889fbe00830478000300e000e1
:104210002c00350003003c00008270000402710095
:104220002600320036432000c50020008383cf00e3
:104230000a0039000541b1008283cf000700390030
:104240000541b1008183cf00040039000541b10070
:104250008083cf00010039000541b10085c35300c0
:104260006022b800120032000a003b008482720013
:10427000610260008301d1000281d3008180d300fc
:104280000080d3000603e8008743e800f7ff3a0008
:10429000070037000000400081804800020149000b
:1042a000838149000603e9008743e900f9ff3a00ea
:1042b0009800070009f0a70003f0a0004f04be001b
:1042c0000000060060001000e08018006001190086
:1042d000e0811900d3ff3b00033e2c00f7ff3700bd
:1042e0002800fa00889fbe008a9fbe008c9fbe00f7
:1042f00007067800878669000c003b0003047800fd
:104300008704780008f0a10009f0a100840f500094
:10431000858f5800860f5900890f5c000300330019
:104320000cf0a20001003a000cf0a1009cff070075
:104330006400e1005f003200780147006408e1009a
:10434000610032006c014700748557003200be00e6
:104350001201be003a04be001a05be001e03900002
:10436000be0a90008503530006003d000004fd00d6
:104370008104fd000205fd008305fd008703ea00be
:10438000050378000df8a300040032006004140057
:10439000e0841c0060051d00e0851d006022b8005f
:1043a0007d0320000d38e1008006eb000b00390092
:1043b0004433dd00f300b20083017300390037009d
:1043c000848272000d027800e10664008b85d100c2
:1043d0000a85d3008984d3000884d3008703e900c9
:1043e000f7ff3b0008004000898048000a014900af
:1043f0008b81490004003b0060001000e080180041
:1044000060011900e08119000358a300090032007f
:104410008d82720084827200610260008301d1008b
:104420000281d3008180d3000080d3000603e8001e
:104430001b0037000348a30017003a000600e00005
:10444000170034000603e9000d00a3000000480037
:104450008180480002014900838149000348a3008c
:104460000f003a000600e000090034000603e900ee
:10447000000040008180480002014900838149001a
:1044800001003a000003eb000348a300f5ff3200ef
:104490006022b800020037008482720061826600e8
:1044a0001c00070003f0a1000cf0a70003f0a0001f
:1044b0004fff3700640147006408e10002003a0042
:1044c0000df8a30047ff3a003200be001201be0003
:1044d00047ff37006022b800060220000000d0002d
:1044e0008180d2000482d2008582d2000000a00028
:1044f0000202520083825a0003003b000202420083
:1045000083824a000000a1000603e900f3ff3a009d
:104510000000060018002000570020000804530087
:104520000d003d000600200097fc2f000740e10031
:104530001e00340084827200610260008301d10099
:104540000281d3008180d3000080d3000804e800fa
:10455000f8ff3a0047002000610460000504740081
:10456000040464000d00320061004000e080480057
:1045700060014900e081490003b8a500070032004e
:104580000603e8006538e10004003a008301d10029
:104590000281d3008180d3000080d300f87f200007
:1045a0000830e10003003500080378006000b8001f
:1045b0006011b8004433dd00f300b20083017300e2
:1045c0000000060005ff2700058261000700320099
:1045d0000428e10001003200240005000600070065
:1045e00001003a004400050004080500020007002d
:1045f000f9ff3a00140005006f826100810270002b
:10460000850271008502720000000600e48240000d
:104610001078a30007003200640240001178a30064
:104620003400be001401be00040032000330a700b5
:10463000000006003500be001501be000330a000da
:10464000000006000200fa00e7c2bf000080fb0085
:104650000000d1000080fb0061006000000f7800c6
:104660001e0078000000d000000f7800e7c2bf00f5
:104670000080fb00610060009e00780080804000a8
:10468000010f78001e0078000000d000000f7800b5
:10469000e6c2bf000080fb004700de000080fb0098
:1046a0009e00780080804000010f78001e00780096
:1046b0000000d000000f7800e6c2bf000080fb00c1
:1046c0004600de000080fb00610060009e00780074
:1046d00080804000010f78001e0078000080fa0002
:1046e00000000600a000fa0093020700c0090700be
:1046f000d70207004f04070085070700890107005c
:104700006f0b0700570c0700e10c07001b0d07009b
:10471000ccff0700000f78000000eb0010079800a6
:104720001e0090009e0f500043003d004104070012
:104730006000b80020079800310798002e01900013
:10474000be019000f0d3200031002000800f510006
:10475000818f590008003c00000000002e009000ee
:10476000be00900061004000e080480020079800f3
:1047700031079800f1ff37001e00900082002000f2
:10478000110009000200d8008000fd001100200087
:10479000d90207006000b800200798003107980090
:1047a0002e019000be019000f03d29004100200044
:1047b000800f5100818f590008003c00000000006c
:1047c0002e009000be00900061004000e080480094
:1047d0002007980031079800f1ff37001504070003
:1047e0006000b80020079800310798002e01900063
:1047f000be019000f03d290041002000800f5100d3
:10480000818f590008003c00000000002e0090003d
:10481000be00900061004000e08048002007980042
:1048200031079800f1ff37001e0090000000e800fb
:1048300010079800baff3700100020009e0f1000ec
:104840002a003a00a05e2c001e0907000000eb00c1
:1048500040079800ce009000f0702200808f50003a
:104860008e003c006000b8002007980031079800d7
:104870002e019000be019000f0d3200031002000f6
:10488000800f5100818f590008003c00000000009b
:104890002e009000be00900061004000e0804800c3
:1048a0002007980031079800f1ff37004e00900074
:1048b00002102000110009000200d8008000fd0055
:1048c000cf80de00d90e07006c0f07000000e0006b
:1048d000fdff3200e05f2c00fa0807004e00900058
:1048e0000000e80040079800daff370022002000af
:1048f0009e0f110035003a0000602c00f1080700ff
:104900000000eb0040079800ce009000700c2000e3
:10491000808f500061003c006a004700930b070045
:104920006a004700700090000000e00019003a00a3
:1049300021002000100020006f0207006a004700dd
:1049400010007800500f9800fc0047006a004700f4
:1049500040019000d0019000829fbe006a00470095
:1049600020019000b0019000829fbe00de099000ff
:10497000831f780050612c00801f780001007800b0
:104980006fee0700ec8757007c004700cd0807005a
:10499000060037006a004700700090000000e00049
:1049a00002003400d0642c00c60807006a004700eb
:1049b00070009000e10f4000d3ff32004e009000e5
:1049c0000000e80040079800cfff37000000eb0030
:1049d000500f9800970307006000b800608f9800a0
:1049e000718f98006e899000fe899000f0d32000ae
:1049f00031002000800f5100818f590008003c00d9
:104a0000000000006e889000fe8890006100400069
:104a1000e0804800608f9800718f9800f1ff3700a8
:104a2000110020005e089000330207006000b8000b
:104a3000608f9800718f98006e899000fe899000b9
:104a4000f03d290041002000800f5100818f590066
:104a500008003c00000000006e889000fe88900076
:104a600061004000e0804800608f9800718f9800de
:104a7000f1ff37005e0890000000e800500f98003a
:104a80005e08900082002000110009000200d8009a
:104a90008000fd00500f9800ceff3700e40b0700a8
:104aa0000000eb000080fa00000006001c00fa0085
:104ab0006000b800008fbe000000eb0020079800e7
:104ac0000000eb00300798006000b8004007980035
:104ad000510798006000b8006007980071079800bf
:104ae0000000eb00300798003e009000e70f5000f8
:104af00042003c003e0090005a0a0700cf80de00d2
:104b0000b9f70700008fbe0060848000cf80de0010
:104b1000b5f707000001be001e00be00ddf707006c
:104b20000000e00031003500100020002007980050
:104b300060848000cf80de00abf707000001be007c
:104b40001e00be00d5f70700000f9800110f980057
:104b5000be009000400020000008b800c2062100fe
:104b6000020040001000be002af8070001f0a20079
:104b70000e0990009e09900028f80700020020000e
:104b80000310240059f807000001be004e009000f9
:104b9000de009000c2f70700400798005107980018
:104ba000be009000400020000008b800c2062100ae
:104bb000020040001000be008ef807000e099000b1
:104bc0009e09900015f80700020020000310240041
:104bd00046f807000001be006e009000fe00900045
:104be000aff7070060079800710798003e0090003b
:104bf0000000e80030079800bbff37002e0090004f
:104c00000000e00005003a007084800049060700bb
:104c10007084800084060700400037004e01900039
:104c2000de0190006e009000fe00900073f8070017
:104c3000000f9800110f98006000b800200f980036
:104c4000310f98006000b800400f9800510f980095
:104c50006011b8000e0890009e0890008df70700c4
:104c60000000e0000a0035000e0890009e08900049
:104c7000e8f70700200f9800310f9800000020008f
:104c800001f82300400f9800510f980009003700e9
:104c90000000200001f82300200f9800310f980039
:104ca0000e0890009e089000daf70700400f980069
:104cb000510f980070848000cf80de004af7070013
:104cc0000001be002e089000be089000d3f7070038
:104cd000200f9800310f980070848000cf80de0094
:104ce00041f707000001be004e089000de0890006a
:104cf000caf70700400f9800510f98002e08900047
:104d0000be0890005af807000a0607004e089000f7
:104d1000de08900056f80700430607000080fa00fe
:104d2000000006000000fa000000eb008008880088
:104d30000111200091407800f0ccb30000c0600069
:104d400010e1b7000000eb0030088800205c200074
:104d50006008880084c0a9008cc0a80011e1a800e8
:104d60000080fa00000006000000fa0011e1a9002e
:104d70000080fa00000006000800fa00000f78002a
:104d800011079800b0878000200798002e0090003f
:104d90000000e0000b0032002e0090003000900078
:104da0009e0f500003003a001100200031079800c8
:104db0001f0037002e009000400090002007980050
:104dc000f2ff3700a0002000a7ed070020079800a1
:104dd0002e0090000000e00002003a0010002000c9
:104de000cced07002e0090009e0090000108780096
:104df000ae0090000000eb0090009800ae00900024
:104e000010c0b300c04098002e0090009e007800b3
:104e1000310098002e009000b1878000410098007a
:104e20002e009000b0878800110020003107980004
:104e30003e0090000080fa00000006000800fa0022
:104e4000000f78000000eb0010079800b08780008a
:104e5000200798002e0090000000e0001a003200a9
:104e60002e009000300090009e0f500010003a007d
:104e70001e0090000000e000050032009e0090003f
:104e80002e00900040009000c00098000300370002
:104e90002e00900040009000b08788002e00900007
:104ea000b2ed07001000200030079800080037001e
:104eb0002e009000100798002e00900040009000f7
:104ec00020079800e3ff37002000200030079800fb
:104ed0003e0090000080fa00000006000800fa0082
:104ee000000f780011079800b08780002007980015
:104ef0002e0090000000e0000e0032002e00900016
:104f0000300090009e0f500006003a002e009000e6
:104f10009e009000010878001000200030079800e3
:104f2000060037002e0090004000900020079800f7
:104f3000efff370021002000310798003e0090006d
:104f40000080fa00000006000600fa00000f78005a
:104f5000b0878000100798001e0090000000e0005d
:104f60000e0032001e009000300090009e0f500096
:104f700006003a009e0090000000eb0090009800b0
:104f80001000200020079800060037001e00900047
:104f90004000900010079800efff3700200020002d
:104fa000200798002e0090000080fa000000060004
:104fb0000600fa00000f7800b08780001007980004
:104fc0001e0090000000e0000e0032001e00900065
:104fd000300090009e0f500006003a009e009000a6
:104fe0000040eb00c040980010002000200798000f
:104ff000060037001e009000400090001007980047
:10500000efff370020002000200798002e009000be
:105010000080fa00000006000600fa00000f780089
:10502000b0878000100798001e0090000000e0008c
:105030000e0032001e009000300090009e0f5000c5
:1050400006003a009e00900010c0b300c0409800d7
:105050001000200020079800060037001e00900076
:105060004000900010079800efff3700200020005c
:10507000200798002e0090000080fa000000060033
:105080003600f800809fbe00829fbe00849fbe0055
:10509000869fbe000200fa00b0878000000f7800f3
:1050a00084c0a9001e00e0001c0032001e00780031
:1050b00040409000e14f500014003a001e0078007c
:1050c0001000e000110032009e0078001e00780001
:1050d000100090000000e800900098001e01780089
:1050e0001e0078009000e90012009000810f50002f
:1050f000060036001e00780030009000000001001d
:105100009e0078000000eb00900098001e007800e0
:1051100040009000000f7800e2ff37000080fa00a6
:105120004f03be004f02be004f01be004f00be0045
:105130003600f900004006000000fa00c4c2a900d1
:10514000c4e2a900c522a900c582a900c542a900e0
:10515000c5a2a900c5c2a900c5e2a900c0c2a90094
:10516000c0e2a900c122a900c182a900c142a900d0
:10517000c1a2a900c1c2a900c1e2a900d022a90010
:10518000cc22a900d042a900cc42a900e2e2a900a9
:10519000e302a900e802a900e822a900dee2a900d2
:1051a000df02a900e402a900e422a900e202a900aa
:1051b000de02a900d602a900d622a900d642a90083
:1051c000d662a900d682a900d6a2a900d6c2a9009b
:1051d000d6e2a900d202a900d222a900d242a90097
:1051e000d262a900d282a900d2a2a900d2c2a9008b
:1051f000d2e2a900d1a2a900cda2a900e842a9004b
:10520000e862a900e442a900e462a900de22a80045
:10521000dec2a800e4c2a800e4e2a800e502a800fb
:10522000e522a800de22a800d302a800d322a8000d
:10523000d342a800d362a800d382a800d3a2a800ba
:10524000d3c2a800d3e2a8000080fa000000060044
:105250000c22ef000e22ef000ee2a9000ec2a90000
:105260008520a9008d20a8000de2a8007000200074
:10527000a01088008540a9008d40a80081e0a90009
:10528000c0048000f1002f00008060000155200064
:1052900000804000c00488000fe2a8000f42a80070
:1052a000000006001622ef001822ef0018e2a90005
:1052b00018c2a9008700a9008f00a80017e2a80063
:1052c00070002000f01088008720a9008f20a8001f
:1052d00081e0a9000005800001f02f00008060003f
:1052e0005105200000804000c004880019e2a80099
:1052f0001942a800000006000600fa00000f78001e
:10530000110798001e007800200798002e009000da
:10531000e30f5000640032002e009000e30f5000b5
:1053200007003e002e009000e10f50002d003200db
:105330002e009000e10f50003f003e000d003700ae
:105340002e009000e50f50008f0032002e009000dc
:10535000e40f5000700036002e009000e60f500061
:10536000a50032002e009000e70f5000be00320072
:10537000d20037001e009000e10f50000f003600f1
:10538000c4c2bf000080fb004600de000080fb00be
:10539000610060000000a200614060004601dd0085
:1053a000412c200091407800f0cbb30000c0600099
:1053b00002407000c4e2b7001c0137002e4090008c
:1053c000614060004601dd00412c200091407800e2
:1053d000f0cbb30000c0600002407000c4e2b70030
:1053e000120137001e009000e10f50000b00360044
:1053f000c4c2bf000080fb004700de000080fb004d
:105400000000a200c700dd00c4c2bf000074a100fc
:1054100001407000c4e2b700040137002e40900044
:10542000c700dd00c4c2bf000074a10001407000cd
:10543000c4e2b700fd0037001e009000e10f5000ed
:105440000f003600c5c2bf000080fb000000d10085
:105450000080fb00610060000000a200614060006d
:105460000041d000512c200091407800d0cfb300f3
:1054700000c0600002407000c5e2b700eb003700da
:105480002e409000614060000041d000512c20006f
:1054900091407800d0cfb30000c06000024070009f
:1054a000c5e2b700e10037001e009000e10f500098
:1054b0000f003600c5c2bf000080fb004400de00c4
:1054c0000080fb00610060000000a20061406000fd
:1054d0004401dd00512c200091407800f0ceb30053
:1054e00000c0600002407000c5e2b700cf00370086
:1054f0002e409000614060004401dd00512c2000ee
:1055000091407800f0ceb30000c06000024070000f
:10551000c5e2b700c50037001e009000e10f500043
:105520000f003600c5c2bf000080fb004200de0055
:105530000080fb00610060000000a200614060008c
:105540004201dd00512c200091407800b0cfb30023
:1055500000c0600002407000c5e2b700b300370031
:105560002e409000614060004201dd00512c20007f
:1055700091407800b0cfb30000c0600002407000de
:10558000c5e2b700a90037001e009000e10f5000ef
:105590000f003600c5c2bf000080fb004500de00e2
:1055a0000080fb00610060000000a200614060001c
:1055b0004501dd00512c200091407800f0cdb30072
:1055c00000c0600002407000c5e2b70097003700dd
:1055d0002e409000614060004501dd00512c20000c
:1055e00091407800f0cdb30000c060000240700030
:1055f000c5e2b7008d0037001e009000e10f50009b
:105600000f003600c5c2bf000080fb004600de0070
:105610000080fb00610060000000a20061406000ab
:105620004601dd00512c200091407800f0cbb30002
:1056300000c0600002407000c5e2b7007b00370088
:105640002e409000614060004601dd00512c20009a
:1056500091407800f0cbb30000c0600002407000c1
:10566000c5e2b700710037001e009000e10f500046
:105670000b003600c5c2bf000080fb004700de0003
:105680000080fb000000a200c700dd00c5c2bf0013
:105690000074a10001407000c5e2b700630037004c
:1056a0002e409000c700dd00c5c2bf000074a100fd
:1056b00001407000c5e2b7005c0037002e4090004a
:1056c000c700dd00c5c2bf000074a100014070002a
:1056d000c5e2b700c5c2bf000080fb004700de0086
:1056e0000080fb00614060004601dd00512c20007d
:1056f00091407800f0cbb30000c060000240700021
:10570000c5e2b700c5c2bf000080fb004600de0056
:105710000080fb0061006000614060004501dd0029
:10572000512c200091407800f0cdb30000c0600003
:1057300002407000c5e2b700c5c2bf000080fb0098
:105740004500de000080fb006100600061406000f9
:105750004201dd00512c200091407800b0cfb30011
:1057600000c0600002407000c5e2b700c5c2bf00c3
:105770000080fb004200de000080fb006100600052
:10578000614060004401dd00512c20009140780010
:10579000f0ceb30000c0600002407000c5e2b70068
:1057a000c5c2bf000080fb004400de000080fb009b
:1057b00061006000614060000041d000512c200079
:1057c00091407800d0cfb30000c06000024070006c
:1057d000c5e2b700c5c2bf000080fb000000d100d9
:1057e0000080fb0061006000c700dd00c4c2bf0094
:1057f0000074a10001407000c4e2b700c4c2bf0041
:105800000080fb004700de000080fb00614060007c
:105810004601dd00412c200091407800f0cbb30020
:1058200000c0600002407000c4e2b7000080fa00cf
:10583000000006000000fa00c4c2a900c4e2a900ea
:10584000c522a900c582a900c542a900c5a2a90018
:10585000c5c2a900c5e2a9000080fa000000060048
:105860000200fa00000f7800100020009e0f1000c8
:105870000f003600d0c2bf000080fb004200de00f7
:105880000080fb00610060000000a2006140600039
:105890004201dd00012d200091407800b0cfb3001f
:1058a00000c0600002407000d0e2b700090037007d
:1058b0009e40780061c060004201dd00012d2000a3
:1058c00091407800b0cfb30000c06000024070008b
:1058d000d0e2b7000080fa00000006000200fa00e3
:1058e000000f7800100020009e0f10000f003600ff
:1058f000d0c2bf000080fb000000d1000080fb0090
:10590000610060000000a200614060000041d00022
:10591000012d200091407800d0cfb30000c060007e
:1059200002407000d0e2b700090037009e407800c6
:1059300061c060000041d000012d2000914078003e
:10594000d0cfb30000c0600002407000d0e2b700ca
:105950000080fa00000006000000fa00c4c2bf0088
:105960000080fb004600de000080fb00610060005c
:105970000080ea00614060004601dd00412c20000b
:1059800091407800f0cbb30000c06000024070008e
:10599000c4e2b700c4c2bf000080fb004700de00c5
:1059a0000080fb000080ea00c700dd00c4c2bf0029
:1059b0000074a10001407000c4e2b700c5c2bf007e
:1059c0000080fb000000d1000080fb00610060004f
:1059d0000080ea00614060000041d000512c2000ae
:1059e00091407800d0cfb30000c06000024070004a
:1059f000c5e2b700c5c2bf000080fb004400de0066
:105a00000080fb00610060000080ea0061406000ef
:105a10004401dd00512c200091407800f0ceb3000d
:105a200000c0600002407000c5e2b700c5c2bf0000
:105a30000080fb004200de000080fb00610060008f
:105a40000080ea00614060004201dd00512c20002e
:105a500091407800b0cfb30000c0600002407000f9
:105a6000c5e2b700c5c2bf000080fb004500de00f4
:105a70000080fb00610060000080ea00614060007f
:105a80004501dd00512c200091407800f0cdb3009d
:105a900000c0600002407000c5e2b700c5c2bf0090
:105aa0000080fb004600de000080fb00610060001b
:105ab0000080ea00614060004601dd00512c2000ba
:105ac00091407800f0cbb30000c06000024070004d
:105ad000c5e2b700c5c2bf000080fb004700de0082
:105ae0000080fb000080ea00c700dd00c5c2bf00e7
:105af0000074a10001407000c5e2b7000080fa0008
:105b0000000006000000fa00c4c2bf000080fb00d5
:105b10004600de000080fb00610060000080ea00bb
:105b2000614060004601dd00412c2000914078007a
:105b3000f0cbb30000c0600002407000c4e2b700c8
:105b40000080fa00000006000000fa00c4c2bf0096
:105b50000080fb004700de000080fb000080ea00c0
:105b6000c700dd00c4c2bf000074a1000140700086
:105b7000c4e2b7000080fa00000006000000fa004e
:105b8000c5c2bf000080fb000000d1000080fb0008
:105b9000610060000080ea00614060000041d000c8
:105ba000512c200091407800d0cfb30000c060009d
:105bb00002407000c5e2b7000080fa000000060055
:105bc0000000fa00c5c2bf000080fb004400de00f8
:105bd0000080fb00610060000080ea00614060001e
:105be0004401dd00512c200091407800f0ceb3003c
:105bf00000c0600002407000c5e2b7000080fa00fb
:105c0000000006000000fa00c5c2bf000080fb00d3
:105c10004200de000080fb00610060000080ea00be
:105c2000614060004201dd00512c2000914078006d
:105c3000b0cfb30000c0600002407000c5e2b70002
:105c40000080fa00000006000000fa00c5c2bf0094
:105c50000080fb004500de000080fb00610060006a
:105c60000080ea00614060004501dd00512c200009
:105c700091407800f0cdb30000c060000240700099
:105c8000c5e2b7000080fa00000006000000fa003c
:105c9000c5c2bf000080fb004600de000080fb00a4
:105ca000610060000080ea00614060004601dd00a4
:105cb000512c200091407800f0cbb30000c0600070
:105cc00002407000c5e2b7000080fa000000060044
